:020000040800F2
:1000000000400020C92F0008291800082D180008FA
:1000100031180008351800083918000800000000E1
:100020000000000000000000000000003D18000873
:100030004118000800000000451800084918000891
:100040001130000811300008113000085518000860
:10005000113000081130000811300008113000087C
:10006000113000081130000811300008113000086C
:10007000113000081130000811300008113000085C
:100080001130000811300008651800081130000810
:10009000113000081130000811300008113000083C
:1000A0000000000011300008113000081130000875
:1000B000113000081130000811300008113000081C
:1000C000113000081130000811300008113000080C
:1000D0001130000875180008113000088518000854
:1000E0001130000895180008113000081130000880
:1000F00011300008000000000000000000000000B7
:1001000000000000000000000000000000000000EF
:1001100000000000000000000000000000000000DF
:1001200000000000000000000000000000000000CF
:0C01300000000000000000005FF808F173
:10013C00044B05481B1A062B02D9044B03B1184774
:10014C00704700BF070000200400002000000000E2
:10015C0005490648091A891001EBD171491002D0E2
:10016C00034B03B118477047040000200400002023
:10017C000000000010B5064C237843B9FFF7D8FFF8
:10018C00044B13B10448AFF300800123237010BD5E
:10019C0004000020000000001430000808B5084BD3
:1001AC001BB108490848AFF300800848036813B92D
:1001BC00BDE80840CCE7064B002BF9D09847F7E791
:1001CC00000000000800002014300008040000208B
:1001DC000000000070B50F4E0F4D761BB61018BF07
:1001EC00002405D0013455F8043B9847A642F9D1B8
:1001FC000A4E0B4D02F008FF761BB61018BF0024F8
:10020C0006D0013455F8043B9847A642F9D170BD8D
:10021C0070BD00BF98300008983000089C30000872
:10022C009830000880EA0102844612F0030F4FD187
:10023C0011F0030F32D14DF8044D11F0040F51F8A9
:10024C00043B0BD0A3F101329A4312F0803F04BF60
:10025C004CF8043B51F8043B16D100BF51F8044B49
:10026C00A3F101329A4312F0803FA4F101320BD179
:10027C004CF8043BA24312F0803F04BF51F8043BFE
:10028C004CF8044BEAD023460CF8013B13F0FF0F5B
:10029C004FEA3323F8D15DF8044B704711F0010F8E
:1002AC0006D011F8012B0CF8012B002A08BF70475F
:1002BC0011F0020FBFD031F8022B12F0FF0F16BF56
:1002CC002CF8022B8CF8002012F47F4FB3D170471E
:1002DC0011F8012B0CF8012B002AF9D1704700BF43
:1002EC0020F0030110F00300C0F1000051F8043BB2
:1002FC0000F1040C4FEACC0C6FF000021CBF22FA88
:10030C000CF213434FF0010C4CEA0C2C4CEA0C4C45
:10031C00A3EB0C0222EA030212EACC1204BF51F83E
:10032C00043B0430F4D0C2F1000102EA0102B2FA3B
:10033C0082F2C2F11F0200EBD200704708B50B48E5
:10034C000B4B03600B4B436000238360C3604FF483
:10035C008042026143618361C361036200F076FFF6
:10036C0018B14221044802F00BF908BD200000200E
:10037C0000540040A08601002C3000080268114B8C
:10038C009A421ED100B587B04FF4407301931223EB
:10039C0002930123039303230493042305930DEB8E
:1003AC000301094802F0B6F9084B5A6A42F40012EC
:1003BC005A625B6A03F400130093009B07B05DF86C
:1003CC0004FB704700540040000402400038024017
:1003DC00704700BF82B0224B9B6813F0F00F23D103
:1003EC001F4B5B6A13F0805F04D01E4B1B6803F439
:1003FC00C05311E01A4A536A43F080535362536A54
:10040C0003F080530193019B164B1B6803F4C053FC
:10041C00516A21F080515162B3F5C05F06D1B0F53D
:10042C00404F05D0002104E0002102E0002100E053
:10043C00012121B10C4A136843F0040313600A4AEA
:10044C00136823F001030B431360136803F00103DB
:10045C00994201D0012000E0002002B0704700BF9B
:10046C000038024000700040003C024070B582B081
:10047C000446036813F0010F00F08E80B34B9B68A9
:10048C0003F00C03082B0AD0B04B9B6803F00C0351
:10049C000C2B1BD1AD4B9B6813F4803F16D04FF443
:1004AC00003393FAA3F3A94B19684FF4003393FA72
:1004BC00A3F3B3FA83F303F01F03012202FA03F34D
:1004CC00194269D06368002B66D172E36368012B13
:1004DC0005D19E4A136843F4803313601FE04BB977
:1004EC009A4B1A6822F480321A601A6822F480221D
:1004FC001A6014E0052B09D1944B1A6842F480223F
:10050C001A601A6842F480321A6008E08F4B1A683D
:10051C0022F480321A601A6822F480221A6063680E
:10052C00EBB100F02DFE054605E000F029FE401B66
:10053C00642800F240834FF4003393FAA3F3834B07
:10054C0019684FF4003393FAA3F3B3FA83F303F06F
:10055C001F03012202FA03F31942E6D01CE000F05B
:10056C000FFE054605E000F00BFE401B642800F270
:10057C0024834FF4003393FAA3F3744B19684FF4AC
:10058C00003393FAA3F3B3FA83F303F01F030122AE
:10059C0002FA03F31942E6D1236813F0020F00F0BC
:1005AC0093806A4B9B6803F00C03042B0AD0674BB7
:1005BC009B6803F00C030C2B28D1644B9B6813F441
:1005CC00803F23D1022393FAA3F3604B19680223D3
:1005DC0093FAA3F3B3FA83F303F01F03012202FA95
:1005EC0003F3194203D0E368934240F0E882574882
:1005FC00436823F4F85123694FF4F85292FAA2F2AB
:10060C00B2FA82F293400B4343605DE0E368A3B31C
:10061C00012292FAA2F3B3FA83F303F1845303F5A4
:10062C008E139B001A6000F0ABFD054605E000F050
:10063C00A7FD401B022800F2C482022393FAA3F305
:10064C00424B1968022393FAA3F3B3FA83F303F032
:10065C001F03012202FA03F31942E8D03B48436816
:10066C0023F4F85123694FF4F85292FAA2F2B2FA39
:10067C0082F293400B43436026E0012393FAA3F3E9
:10068C00B3FA83F303F1845303F58E139B0000221A
:10069C001A6000F075FD054605E000F071FD401B89
:1006AC00022800F29082022393FAA3F3274B1968D5
:1006BC00022393FAA3F3B3FA83F303F01F0301228B
:1006CC0002FA03F31942E8D1236813F0100F00F07B
:1006DC00E4801E4B9B6813F00C0F72D14FF4007327
:1006EC0093FAA3F3194B19684FF4007393FAA3F31D
:1006FC00B3FA83F303F01F03012202FA03F3194246
:10070C0003D0A369002B00F06082206A0F4B5B685A
:10071C0003F4604398421BD9FFF75CFE002840F0BD
:10072C0056820A494B6823F46042236A13434B6098
:10073C004B6823F07F40E3694FF07F4292FAA2F2BC
:10074C00B2FA82F2934003434B601AE00038024045
:10075C00B7494B6823F46043184348604B6823F057
:10076C007F40E3694FF07F4292FAA2F2B2FA82F232
:10077C00934003434B60206AFFF72CFE002840F0A7
:10078C002882236A4FF4604292FAA2F2B2FA82F201
:10079C00D3405A1C4FF400439340A54A926802F090
:1007AC00F001F02292FAA2F2B2FA82F221FA02F2EB
:1007BC00A0498A5CD340A04A1360002000F0B6FC2C
:1007CC006BE0A369002B3ED04FF4807393FAA3F334
:1007DC00B3FA83F303F1845303F58E139B000122C8
:1007EC001A6000F0CDFC054605E000F0C9FC401B8A
:1007FC00022800F2F0814FF4007393FAA3F38C4BB0
:10080C0019684FF4007393FAA3F3B3FA83F303F06C
:10081C001F03012202FA03F31942E6D084494B6804
:10082C0023F46042236A13434B604B6823F07F40F0
:10083C00E3694FF07F4292FAA2F2B2FA82F293404D
:10084C0003434B6029E04FF4807393FAA3F3B3FA9C
:10085C0083F303F1845303F58E139B0000221A607B
:10086C0000F08EFC054605E000F08AFC401B0228D7
:10087C0000F2B3814FF4007393FAA3F36C4B196835
:10088C004FF4007393FAA3F3B3FA83F303F01F034B
:10089C00012202FA03F31942E6D1236813F0080F80
:1008AC0049D063691BB3012191FAA1F2B2FA82F229
:1008BC00624B13449B00196000F062FC054605E096
:1008CC0000F05EFC401B022800F28981022393FA9F
:1008DC00A3F2574A516B93FAA3F3B3FA83F303F0E1
:1008EC001F03012202FA03F31942E9D023E001228B
:1008FC0092FAA2F2B2FA82F2504B13449B000022FD
:10090C001A6000F03DFC054605E000F039FC401B88
:10091C00022800F26681022393FAA3F2444A516B37
:10092C0093FAA3F3B3FA83F303F01F03012202FA41
:10093C0003F31942E9D1236813F0040F00F0A180EE
:10094C003B4B5B6A13F0805F0BD1394B5A6A42F018
:10095C0080525A625B6A03F080530193019B01251C
:10096C0000E00025364B1B6813F4807F13D1344A0A
:10097C00136843F48073136000F002FC064605E034
:10098C0000F0FEFB801B642800F22D812C4B1B68B1
:10099C0013F4807FF4D0A368012B05D1244A536B48
:1009AC0043F4807353631FE04BB9214B5A6B22F411
:1009BC0080725A635A6B22F480625A6314E0052BDE
:1009CC0009D11B4B5A6B42F480625A635A6B42F446
:1009DC0080725A6308E0164B5A6B22F480725A6389
:1009EC005A6B22F480625A63A368EBB100F0C8FB27
:1009FC00064607E000F0C4FB801B41F288339842A6
:100A0C0000F2F3804FF4007393FAA3F2084A516B8F
:100A1C0093FAA3F3B3FA83F303F01F03012202FA50
:100A2C0003F31942E6D026E000F0AAFB064611E0DB
:100A3C00003802403830000800000020A0C191109E
:100A4C000070004000F09CFB801B41F28833984200
:100A5C0000F2CD804FF4007393FAA3F26A4A516B03
:100A6C0093FAA3F3B3FA83F303F01F03012202FA00
:100A7C0003F31942E6D125B1634A536A23F080533C
:100A8C005362636A002B00F0B4805F4A926802F0F4
:100A9C000C020C2A00F0AF80022B5FD14FF0807358
:100AAC0093FAA3F3B3FA83F303F1845303F58E1390
:100ABC009B0000221A6000F063FB054605E000F085
:100ACC005FFB401B022800F298804FF0007393FAF2
:100ADC00A3F34D4B19684FF0007393FAA3F3B3FAD9
:100AEC0083F303F01F03012202FA03F31942E6D148
:100AFC004548836823F47D01A26AE36A1343226BA1
:100B0C0013430B4383604FF0807393FAA3F3B3FA50
:100B1C0083F303F1845303F58E139B0001221A60B7
:100B2C0000F02EFB044604E000F02AFB001B022818
:100B3C0065D84FF0007393FAA3F3334B19684FF059
:100B4C00007393FAA3F3B3FA83F303F01F030122A8
:100B5C0002FA03F31942E7D0002053E04FF0807300
:100B6C0093FAA3F3B3FA83F303F1845303F58E13CF
:100B7C009B0000221A6000F003FB044604E000F026
:100B8C00FFFA001B02283CD84FF0007393FAA3F332
:100B9C001D4B19684FF0007393FAA3F3B3FA83F368
:100BAC0003F01F03012202FA03F31942E7D10020DC
:100BBC0028E0012026E0032024E0032022E001208D
:100BCC0020E003201EE003201CE001201AE001209D
:100BDC0018E0012016E0032014E0032012E00320AB
:100BEC0010E003200EE003200CE003200AE00320B9
:100BFC0008E0002006E0012004E0032002E00320CE
:100C0C0000E0032002B070BD00380240234B9B680B
:100C1C0003F00C02082A3ED00C2A03D0042A28D157
:100C2C001F48704703F470114FF4701292FAA2F23D
:100C3C00B2FA82F221FA02F21A49895C03F44003F7
:100C4C004FF4400090FAA0F0B0FA80F0C3400133AA
:100C5C00124A926812F4803F05D0134800FB01F051
:100C6C00B0FBF3F070470E4A02FB01F0B0FBF3F05F
:100C7C0070470A4B586800F460434FF4604090FA98
:100C8C00A0F0B0FA80F023FA00F001304FF40043EA
:100C9C0003FA00F070470448704700BF0038024068
:100CAC000024F4005030000800366E0170B5924BF1
:100CBC001B6803F001038B4212D2012904D18E4A26
:100CCC00136843F0040313608B4A136823F0010389
:100CDC000B431360136803F00103994240F0F78053
:100CEC00036813F0020F06D0844CA36823F0F002C3
:100CFC0083681343A3600D460446036813F0010F89
:100D0C0000F09F804368022B13D14FF4003292FA0B
:100D1C00A2F27A4A10684FF4003292FAA2F2B2FAB6
:100D2C0082F202F01F02012101FA02F210423ED1BE
:100D3C00CFE0032B13D14FF0007292FAA2F26F4A5C
:100D4C0010684FF0007292FAA2F2B2FA82F202F03C
:100D5C001F02012101FA02F2104228D1BBE0012B43
:100D6C0011D1022292FAA2F2644A1068022292FA7B
:100D7C00A2F2B2FA82F202F01F02012101FA02F28F
:100D8C00104214D1A9E04FF4007292FAA2F25B4A1D
:100D9C0010684FF4007292FAA2F2B2FA82F202F0E8
:100DAC001F02012101FA02F2104200F0988053490F
:100DBC008A6822F0030213438B6000F0E1F90646C7
:100DCC006368022B0FD107E000F0DAF9801B41F2C7
:100DDC008833984200F28580484B9B6803F00C03E3
:100DEC00082BF1D12DE0032B0ED106E000F0C8F951
:100DFC00801B41F28833984275D8404B9B6803F0B6
:100E0C000C030C2BF2D11CE0012B15D106E000F0E9
:100E1C00B7F9801B41F28833984266D8374B9B68F0
:100E2C0003F00C03042BF2D10BE000F0A9F9801BAA
:100E3C0041F2883398425AD8304B9B6813F00C0F10
:100E4C00F3D12D4B1B6803F001039D4211D2012DF0
:100E5C0004D1294A136843F004031360264A13682B
:100E6C0023F001032B431360136803F001039D422D
:100E7C003FD1236813F0040F06D020498B6823F46C
:100E8C00E062E36813438B60236813F0080F07D00C
:100E9C001A4A936823F46053216943EAC1039360AF
:100EAC00FFF7B4FE154B9B6803F0F002F02393FAA6
:100EBC00A3F3B3FA83F322FA03F3114AD35CD840B9
:100ECC00104B1860002000F031F9002070BD01209B
:100EDC0070BD012070BD012070BD012070BD0120CE
:100EEC0070BD032070BD032070BD032070BD0320B6
:100EFC0070BD012070BD00BF003C024000380240B4
:100F0C003830000800000020014B1868704700BF03
:100F1C000000002008B5FFF7F7FF084B9B6803F4AF
:100F2C00E0624FF4E06393FAA3F3B3FA83F322FA8B
:100F3C0003F3034AD35CD84008BD00BF003802401D
:100F4C004830000808B5FFF7DFFF084B9B6803F437
:100F5C0060524FF4605393FAA3F3B3FA83F322FA7B
:100F6C0003F3034AD35CD84008BD00BF00380240ED
:100F7C00483000080E4B1A6842F480721A60996867
:100F8C000C4A0A409A601A6822F0885222F0011228
:100F9C001A601A6822F480221A609A6822F47D0280
:100FAC009A600022DA604FF00062034B9A6070473F
:100FBC00003802400CC0FF8800ED00E0036813F01D
:100FCC00010F00F0A280F0B583B0554B5B6A13F0B3
:100FDC00805F0BD1524B5A6A42F080525A625B6A64
:100FEC0003F080530193019B012400E0002405468B
:100FFC004C4B1B6813F4807F12D14A4A136843F49C
:10100C008073136000F0BCF8064604E000F0B8F8FA
:10101C00801B64287BD8434B1B6813F4807FF5D06E
:10102C003F4B1B6803F0C0436A6802F0C0418B421F
:10103C0009D002F44033B3F5403F04D1384B1B6860
:10104C0013F4003F65D1364B5B6B13F4403340D047
:10105C0002F4403293423CD02B6813F0010F38D08D
:10106C002F4E706B20F440374FF4000191FAA1F32E
:10107C00B3FA83F32C4A13449B004FF0010EC3F8D0
:10108C0000E091FAA1F1B1FA81F10A449200002337
:10109C001360776310F4807F1BD000F071F8064664
:1010AC0006E000F06DF8801B41F28833984232D88C
:1010BC004FF4007393FAA3F2194A516B93FAA3F30A
:1010CC00B3FA83F303F01F03012202FA03F319426C
:1010DC00E7D06B6803F44032B2F5403F07D11049BA
:1010EC000A6822F0C04203F0C04313430B600C4A61
:1010FC00516B6B6803F440330B4353636CB1536A0D
:10110C0023F080535362002008E000207047032036
:10111C0004E0012002E0032000E0002003B0F0BD59
:10112C000038024000700040A0C1911010B5044678
:10113C00074B1B680748A0FB0330800900F066FCD6
:10114C00002221464FF0FF3000F022FC002010BDA1
:10115C0000000020D34D621008B5032000F006FCFF
:10116C000020FFF7E3FF00F07DFC002008BD00BF6E
:10117C00024A136801331360704700BF74000020EB
:10118C00014B1868704700BF7400002000B585B093
:10119C001648174B0360002343608360C3600361F0
:1011AC0043618361C3610362436201228262C36251
:1011BC00102242638363C36300F0FAF818B14B2129
:1011CC000C4801F0DDF90223019301230293002363
:1011DC00039301A9054800F059FA18B155210548A7
:1011EC0001F0CEF905B05DF804FB00BF78000020DB
:1011FC00002401405C3000080268124B9A4220D156
:10120C0010B586B003F58A331A6A42F400721A627A
:10121C001B6A03F400730093009B042301930323C4
:10122C0002930024039401A9074801F073FA2246A3
:10123C002146122000F0ACFB122000F0DBFB06B0C4
:10124C0010BD70470024014000000240002800F04F
:10125C00A38070B5044690F83D3013F0FF0F04D115
:10126C00002380F83C30FFF789F8FFF753FE4C4B16
:10127C00984240F29380242384F83D30226813680E
:10128C0023F001031360474BA3FB00239B0C216845
:10129C004A6822F03F021A434A6025682A6A22F003
:1012AC003F02666840498E4201D8013308E04FF492
:1012BC00967101FB03F33D49A1FB03139B09013319
:1012CC0013432B622568EB6923F44F4323F0FF0390
:1012DC00626835498A4208D85200B0FBF2F0C0F37C
:1012EC000B02032A2BD8042029E0A6684EB902EB86
:1012FC004201B0FBF1F1C1F30B01B1FA81F14909E3
:10130C000AE002EB820101EB8101B0FBF1F1C1F3C8
:10131C000B01B1FA81F1490981B936B902EB4202EC
:10132C00B0FBF2F040F4004009E002EB820202EB69
:10133C008202B0FBF2F040F4404000E00120184380
:10134C00E86121680B6823F0C002E069236A03435B
:10135C0013430B6021688B6823F4034222F0FF02D5
:10136C002069E368034313438B602168CB6823F047
:10137C00FF026069A36903431343CB6022681368BF
:10138C0043F00103136000202064202384F83D30D7
:10139C00206384F83E0070BD01207047012070BDB1
:1013AC007F841E0083DE1B43A0860100D34D621098
:1013BC00002800F0B58070B582B00446C36C73B9D8
:1013CC00036580F84830594B1A6A42F001021A62E0
:1013DC001B6A03F001030193019BFFF70DFFE36C04
:1013EC0013F0100F40F09E80E36C23F4885323F02D
:1013FC00020343F00203E3644D494B6823F440328B
:10140C00636813434B60E26863691343E26B4FF408
:10141C00007191FAA1F1B1FA81F18A401A43236A61
:10142C001A43606A022393FAA3F3B3FA83F300FA24
:10143C0003F31343616B102902D0A26B0A431343CD
:10144C0025682A6812F040022DD1A1690B43A668C9
:10145C00E16931432669B6F5807F04D0012E03D1B2
:10146C004FF4807200E032460A43E16A012915D13B
:10147C0060B9216B01394FF4604090FAA0F0B0FADA
:10148C0080F0814041F400610A4307E0E16C41F0D7
:10149C002001E164216D41F0010121656868254955
:1014AC0001400A436A6021688868234A02401A4353
:1014BC008A602269B2F5807F01D0012A10D125689B
:1014CC002A6B22F0F870A26A511E4FF0F87292FA51
:1014DC00A2F2B2FA82F201FA02F202432A6304E0A7
:1014EC0021680A6B22F0F8720A6322689168134A29
:1014FC000A40934208D100202065E36C23F00303DB
:10150C0043F00103E3640EE0E36C23F0120343F0B9
:10151C001003E364236D43F001032365012002E013
:10152C0001207047012002B070BD00BF003802409E
:10153C0000270140FF16FCFC8DF1FFC0FEFF80BFB1
:10154C00704700BF704700BF704700BF38B50446F6
:10155C0003685A6812F0200F30D01A6812F0020F8C
:10156C002CD0C26C12F0100F03D1C26C42F400727A
:10157C00C2649A6812F0405F19D1626ABAB91A6BE8
:10158C0012F0F87F03D09A6812F4806F0FD15A686A
:10159C0022F020025A60E36C23F48073E364E36C62
:1015AC0013F4805F03D1E36C43F00103E364204642
:1015BC00FFF7C6FF23686FF012021A6023685A689F
:1015CC0012F0800F38D01A6812F0040F34D0E26C8D
:1015DC0012F0100F03D1E26C42F40052E2649A68EC
:1015EC0012F4401F21D15A6C12F4401F03D09A6898
:1015FC0012F4806F19D15A6812F4806F15D19A6861
:10160C0012F0405F11D1626A7AB95A6822F08002F6
:10161C005A60E36C23F48053E364E36C13F4807F2F
:10162C0003D1E36C43F00103E3642046FEF7D0FEE4
:10163C0023686FF00C021A6023685A6812F0400F8E
:10164C000ED01B6813F0010F0AD0E36C43F4803307
:10165C00E3642046FFF776FF23686FF001021A60FF
:10166C0023685A6812F0806F0FD01A6812F0200F9E
:10167C000BD0226D42F0020222656FF020051D6036
:10168C002046FFF761FF23681D6038BD70B483B03E
:10169C000023019390F84830012B00F0B680012311
:1016AC0080F848304B68062B0ED80668356C03EB77
:1016BC008303053B1F249C4025EA04040A6802FAB4
:1016CC0003F32343336440E00C2B0ED80568EA6B1C
:1016DC0003EB8303233B1F249C4022EA04040A6887
:1016EC0002FA03F32343EB632FE0122B0ED80568A9
:1016FC00AA6B03EB8303413B1F249C4022EA0404A6
:10170C000A6802FA03F32343AB631EE0182B0ED8CE
:10171C0005686A6B03EB83035F3B1F249C4022EA42
:10172C0004040A6802FA03F323436B630DE00568B3
:10173C002A6B03EB83037D3B1F249C4022EA0404A9
:10174C000A6802FA03F323432B630B68092B0DD8A9
:10175C000668756903EB430307249C4025EA0404DF
:10176C008A6802FA03F32343736122E0132B0ED829
:10177C0005682A6903EB43031E3B07249C4022EABD
:10178C0004048A6802FA03F323432B6111E01A2B39
:10179C000ED80568EA6803EB43033C3B07249C40E6
:1017AC0022EA04048A6802FA03F32343EB6000E0A4
:1017BC0000BF0B68103B012B22D8164B5B6813F44F
:1017CC00000F1DD1134A536843F4000353600B6898
:1017DC00102B15D1104B1B6802F1467202F52D32FD
:1017EC0002F28332A2FB03239B0C03EB83035A000C
:1017FC00019202E0019B013B0193019B002BF9D16B
:10180C00002380F84830184600E0022003B070BC7A
:10181C00704700BF0027014000000020704700BF48
:10182C00FEE700BFFEE700BFFEE700BFFEE700BF1C
:10183C00704700BF704700BF704700BF08B5FFF787
:10184C0097FC00F00BF908BD08B5024800F026FE25
:10185C0008BD00BFA001002008B50248FFF776FEC6
:10186C0008BD00BF7800002008B5024801F006FB57
:10187C0008BD00BF0002002008B5024801F0FEFAC6
:10188C0008BD00BFC001002008B5024800F076FA80
:10189C0008BD00BFA001002008B50368274A934289
:1018AC001AD1274B1B7833B108E00021254AD154BB
:1018BC000133DBB200E00023632BF6D922490A780E
:1018CC00204B1A700122214B1A7000201C4B1870EF
:1018DC001F4801F01FFA08BD1E4A93422CD11E4B23
:1018EC00187840B163280BD107E000211B4AD15472
:1018FC000133DBB202E0002300E00023632BF4D9B8
:10190C00431CDBB2144A1370154A1178134A115454
:10191C00991E525C0D2A0AD1013B104AD35C0A2B4A
:10192C0005D101220F4B1A7000220B4B1A700122A9
:10193C000B490D4801F0EEF908BD00BF003801401D
:10194C00D00000203C010020D4000020CE0000205C
:10195C000002002000480040CF000020D8000020EA
:10196C00CC000020D1000020C0010020074AD36821
:10197C0023F4E0631B041B0C000200F4E06018432A
:10198C0040F0BF6040F40030D060704700ED00E0E4
:10199C0030B4164BDB68C3F30223C3F10704042CE9
:1019AC0028BF04241D1D062D01D9DD1E00E00025D5
:1019BC00012303FA04F4013C2140A940AB40013B54
:1019CC001A400A43002806DA00F00F001201D2B2C6
:1019DC00074B1A5407E01201D2B200F1604000F537
:1019EC00614080F8002330BC704700BF00ED00E080
:1019FC0014ED00E0420900F01F00012303FA00F08F
:101A0C00014B43F82200704700E100E00138B0F1CF
:101A1C00807F0AD2064B5860F021064A82F82310C8
:101A2C000020986007221A6070470120704700BFA1
:101A3C0010E000E000ED00E0042805D1054A136831
:101A4C0043F0040313607047024A136823F0040345
:101A5C001360704710E000E0704700BF08B5FFF757
:101A6C00FBFF08BD00B585B0254B5A6A42F0004219
:101A7C005A625A6A02F000420192019A1A6A42F0C2
:101A8C0001021A621A6A02F001020292029A5A6A5E
:101A9C0042F080525A625B6A03F080530393039BBB
:101AAC000320FFF763FF002211466FF00B00FFF7D6
:101ABC006FFF002211466FF00A00FFF769FF00224A
:101ACC0011466FF00900FFF763FF002211466FF01B
:101ADC000400FFF75DFF002211466FF00300FFF7D3
:101AEC0057FF002211466FF00100FFF751FF002253
:101AFC0011464FF0FF30FFF74BFF05B05DF804FBCC
:101B0C00003802402DE9F0438BB0444BDA6942F0C7
:101B1C000402DA61DA6902F004020192019ADA69CC
:101B2C0042F02002DA61DA6902F020020292029A93
:101B3C00DA6942F00102DA61DA6902F00102039219
:101B4C00039ADA6942F00202DA61DB6903F00203FC
:101B5C000493049BDFF8D48000220221404600F05D
:101B6C00ABFE2F4F002249F21001384600F0A4FEC4
:101B7C002C4E00224EF2D101304600F09DFE4FF467
:101B8C000053059300240694079405A9264800F0F9
:101B9C00C1FD012505950694079405A9404600F062
:101BAC00B9FD4FF00209CDF81490069507940894EE
:101BBC0005A9404600F0AEFD40F6090305930694D6
:101BCC00079405A9384600F0A5FD49F210030593CA
:101BDC0006950794089405A9384600F09BFD4EF233
:101BEC00D103059306950794089405A9304600F097
:101BFC0091FDCDF814900694079405A9304600F099
:101C0C0089FD4FF4805305930694079505A930463A
:101C1C0000F080FD0BB0BDE8F08300BF003802403F
:101C2C000000024000040240000802400014024080
:101C3C0000B58DB039483A4B0360002100F04CFCE4
:101C4C0043F2F223984266D03448002343607F224B
:101C5C008260FF22C26003614361836100F0DCF8A3
:101C6C0018B144212F4800F08BFC21238DF824302F
:101C7C0040238DF8253000238DF826300A930B93E2
:101C8C00012209A9254800F027F918B1502125484F
:101C9C0000F076FC06238DF8203005238DF82130DA
:101CAC008DF8223018238DF82330012208A91B4807
:101CBC0000F08CF918B15A211A4800F061FC00238D
:101CCC008DF804308DF8053059228DF806200293DA
:101CDC000393154A0492059301228DF818204FF4B2
:101CEC008073079301A90D4800F078FA18B16B21A5
:101CFC000C4800F045FC06220121084800F054FB7A
:101D0C0018B17221074800F03BFC43F2F22200218B
:101D1C00024800F0DBFB0DB05DF804FBA0010020D5
:101D2C0000280040683000080080808008B50268F8
:101D3C000F4B9A421AD14FF4800292FAA2F2B2FAE5
:101D4C0082F20C4B13449B0001221A6000221146B4
:101D5C000320FFF71DFE0320FFF74CFE0022114667
:101D6C002920FFF715FE2920FFF744FE08BD00BF10
:101D7C0000280040A0C19110704700BF10B5044668
:101D8C0003689A6812F4805F0BD0DB6813F4807FD1
:101D9C0007D0FFF7F1FF2268D368DBB263F4C0739E
:101DAC00D36023689A6812F4005F0CD0DB6813F4DC
:101DBC00007F08D0204600F095FB2268D368DBB288
:101DCC0063F42073D3604FF40032024B5A61012349
:101DDC00637710BD0004014038B50368DA6812F06F
:101DEC00400F14D104464FF0FF32DA60FFF7C8F908
:101DFC00054605E0FFF7C4F9401BB0F57A7F08D81B
:101E0C002368DB6813F0400FF4D0002038BD0020AD
:101E1C0038BD032038BD00BF00284BD038B5044670
:101E2C00437F13F0FF0F03D100230377FFF77EFFEF
:101E3C00022363772368CA225A62236853225A62A8
:101E4C002046FFF7C9FF024630B12368FF225A62D1
:101E5C0004236377012230E021688B6823F4E003CC
:101E6C0023F040038B6020688568636821691943FF
:101E7C0063690B432B4383602368E1681961216814
:101E8C000B69A06843EA00430B612168CB6823F01F
:101E9C008003CB6021680B6C23F480230B642168D6
:101EAC00086CA36903430B642368FF215962012367
:101EBC00637702E0012210467047104638BD00BF20
:101ECC00002302E001330A38C0B20928FAD81B01FA
:101EDC00DBB21843704700BF037F012B70D070B585
:101EEC000D4604460123037702234377BAB90368EE
:101EFC009B6813F0400F01D10023CB702878FFF7BB
:101F0C00DFFF06046878FFF7DBFF46EA0026A878B7
:101F1C00FFF7D6FF3043EE7840EA064610E0036840
:101F2C009B6813F0400F01D10023CB702E786B7897
:101F3C001B0243EA0646AB783343E87843EA004693
:101F4C002368CA225A62236853225A622046FFF73A
:101F5C0043FF40B12368FF225A62042363770023B6
:101F6C00237701232FE0236806F07F3020F0FE401A
:101F7C0018602268936823F4802393602168886832
:101F8C006B68AA68134303438B602268D36823F001
:101F9C008003D360204600F0EDF9034640B123687E
:101FAC00FF225A62042363770023237701230AE07C
:101FBC002268FF215162012262770022227702E01F
:101FCC00022318467047184670BD00BF037F012BD3
:101FDC005FD070B501230377022343773AB94B786E
:101FEC0013F0100F03D023F010030A334B700D467F
:101FFC00044682B9C878FFF763FF06046878FFF7D8
:10200C005FFF46EA0026A878FFF75AFF30432D7889
:10201C0040EA453509E04B788A78C8781B0243EAD8
:10202C0000431343087843EA40352368CA225A62B6
:10203C00236853225A622046FFF7CEFE40B1236834
:10204C00FF225A620423637700232377012323E0C2
:10205C00236825F07F4020F0C00058602268D368C8
:10206C0023F08003D360204600F084F9034640B18E
:10207C002368FF225A62042363770023237701230A
:10208C000AE02268FF215162012262770022227746
:10209C0002E0022318467047184670BD030903EB93
:1020AC0083035A0000F00F001044C0B2704700BF09
:1020BC0008B50B480B4B03604FF4165343600023D9
:1020CC008360C36003610C2242618361C36100F0D1
:1020DC00BDFD18B14321044800F052FA08BD00BF01
:1020EC0000020020003801407430000808B50B488D
:1020FC000B4B03604FF41653436000238360C360A3
:10210C0003610C2242618361C36100F09FFD18B131
:10211C005621044800F034FA08BD00BFC00100206D
:10212C00004800407430000800B589B00368264AA6
:10213C00934221D1254B1A6A42F480421A621B6ADF
:10214C0003F480430193019B4FF4C0630393022378
:10215C00049301230593032306930723079303A9F1
:10216C001B4800F0D7FA002211462520FFF710FC7F
:10217C002520FFF73FFC23E0164A934220D1134B56
:10218C005A6A42F480225A625B6A03F480230293F7
:10219C00029B4FF4406303930223049301230593A2
:1021AC00032306930723079303A90B4800F0B2FA05
:1021BC00002211462720FFF7EBFB2720FFF71AFC24
:1021CC0009B05DF804FB00BF003801400038024044
:1021DC00000002400048004000040240037F012B35
:1021EC0000F0C48070B50D4604460123037702232A
:1021FC00437702BB03689B6813F0400F01D10023A7
:10220C00CB702878FFF75CFE06046878FFF758FE61
:10221C0046EA0026A878FFF753FE3043EE7840EAF2
:10222C000646287DFFF74CFE46EA00602E69064301
:10223C00EB681E4324E003689B6813F0400F03D047
:10224C000878FFF72BFF01E00023CB702B691BB93B
:10225C00287DFFF723FF02E0287DFFF71FFF297879
:10226C006A78130243EA0142AB781343EA7843EAF3
:10227C0002432E7D43EA06632E691E43EB681E4320
:10228C002368CA225A62236853225A62AB69B3F597
:10229C00807F2DD12268936823F480739360226829
:1022AC00D368DBB263F4C073D360FEF769FF0546F5
:1022BC000DE0FEF765FF401BB0F57A7F07D9236868
:1022CC00FF225A62032060770023237770BD2368B6
:1022DC00DA6812F0010FECD0DE612268936843F4E7
:1022EC00807393602268936843F4805393602CE06E
:1022FC002268936823F4007393602268D368DBB27E
:10230C0063F42073D360FEF73BFF05460DE0FEF748
:10231C0037FF401BB0F57A7F07D92368FF225A623A
:10232C00032060770023237770BD2368DA6812F0EE
:10233C00020FECD01E622268936843F40073936022
:10234C002268936843F400539360094B1A6842F473
:10235C0000321A609A6842F400329A602368FF22B5
:10236C005A62012363770020207770BD02207047EA
:10237C000004014038B504460268D36823F0A0037A
:10238C00D360FEF7FDFE054605E0FEF7F9FE401BA7
:10239C00B0F57A7F06D82368DB6813F0200FF4D0F1
:1023AC00002038BD032038BDF8B5037F012B6FD05A
:1023BC0015460E4604460123037702234377036830
:1023CC00CA225A62036853225A6203689B6813F448
:1023DC00806F16D0FEF7D4FE07460DE0FEF7D0FE58
:1023EC00C01BB0F57A7F07D92368FF225A620320FD
:1023FC00607700232377F8BD2368DB6813F0040FA4
:10240C00ECD12268936823F4806393602268D368CC
:10241C00DBB263F49063D360FEF7B2FE07460DE0C7
:10242C00FEF7AEFEC01BB0F57A7F07D92368FF22FA
:10243C005A620320607700232377F8BD2368D8689D
:10244C0010F0040FECD05E612268936823F0070350
:10245C00936023689A6815439D600E4B1A6842F48A
:10246C0080121A609A6842F480129A60226893680B
:10247C0043F4804393602268936843F480639360D1
:10248C002368FF225A620123637700202077F8BD6E
:10249C000220F8BD00040140704700BF10B504468F
:1024AC000368DB6813F4806F07D0FFF7F5FF226831
:1024BC00D368DBB263F49063D3604FF48012024BA9
:1024CC005A610123637710BD000401400368503347
:1024DC0043F82120704700BF0368503353F82100A4
:1024EC00704700BF704700BF08B50E480E4B036025
:1024FC004FF48273436000238360C36003614361C4
:10250C004FF400728261C3610362436283620A23E7
:10251C00C36200F015FD18B14521044800F030F8F5
:10252C0008BD00BF40020020003001408030000890
:10253C000268114B9A421DD100B587B003F5843364
:10254C001A6A42F480521A621B6A03F48053009395
:10255C00009BE023019302230293002303930323A4
:10256C0004930523059301A9044800F0D3F807B0A0
:10257C005DF804FB704700BF0030014000000240D2
:10258C00FEE700BF00B595B0284A136823F4C0538A
:10259C0043F40063136006230793012309930A9302
:1025AC0010230B9302231093002311934FF4002359
:1025BC0012934FF44003139307A8FDF757FF18B17C
:1025CC00BC211B48FFF7DCFF0F230293032303936B
:1025DC000023049305930693012102A8FEF766FBE2
:1025EC0018B1CA211248FFF7CBFF012300934FF417
:1025FC00803301936846FEF7E1FC18B1D1210C48F9
:10260C00FFF7BEFFFEF780FC0A4BA3FB00308009EE
:10261C00FFF7FCF90420FFF70FFA002211464FF0E8
:10262C00FF30FFF7B5F915B05DF804FB0070004002
:10263C008C300008D34D621000B59BB0FEF78CFDBA
:10264C00FFF7A0FFFFF75EFAFFF750FDFFF730FD35
:10265C00FFF7EEFAFDF772FEFFF746FFFEF796FD69
:10266C0001222249224800F055FB0122214922482F
:10267C0000F050FB0023199334E04FF480511F48B5
:10268C0000F012F919901E4B1B78012B12D110215E
:10269C001A4800F017F91B496846FDF7C3FD684658
:1026AC00FDF71EFE82B26946114800F0FFFA0022C7
:1026BC00134B1A70144B1B78012B13D14FF4805110
:1026CC00124800F0FFF812496846FDF7ABFD68466A
:1026DC00FDF706FE82B26946074800F0E7FA0022D1
:1026EC00094B1A70199B002BC7D0FEE7D4000020B1
:1026FC0000020020CC000020C00100200004024099
:10270C00D1000020D8000020CE00002000000240A4
:10271C003C010020F0B583B00023B6E001249C40BE
:10272C00224000F0B1804D68022D01D0122D10D145
:10273C00DE08083650F826C003F00705AF000F2559
:10274C00BD402CEA050E0D69BD404EEA050540F86A
:10275C00265005685F000326BE40F64305EA060EC8
:10276C004D6805F00305BD404EEA050505604D6852
:10277C0005F1FF3EBEF1010F03D9112D01D0122D31
:10278C0010D1856806EA050ECD68BD404EEA0505F8
:10279C008560456825EA04044D68C5F300159D4025
:1027AC0025434560C46826408C68BC403443C460F3
:1027BC004C6814F0805F67D0374C256A45F00105F2
:1027CC002562246A04F001040194019C9E08B51C46
:1027DC00324C54F8255003F00304A4000F27A740F3
:1027EC0025EA07072E4DA84211D005F58065A842B1
:1027FC000FD005F58065A8420DD005F58065A8427F
:10280C000BD005F58065A84209D1042508E0002508
:10281C0006E0012504E0022502E0032500E0052581
:10282C0005FA04F43C4302361C4D45F826401D4C79
:10283C002568D44305EA04064F6817F4803F01D09D
:10284C0042EA0506174D2E606D6804EA05064F68CE
:10285C0017F4003F01D042EA0506124D6E60AD68D8
:10286C0004EA05064F6817F4801F01D042EA0506FA
:10287C000C4DAE60ED682C404E6816F4001F01D074
:10288C0042EA0504074AD46001330A6832FA03F4B9
:10289C007FF444AF03B0F0BD0038024000000140AB
:1028AC0000000240000401400369194201D00120DC
:1028BC0070470020704700BF0AB18161704709045E
:1028CC0081617047436959404161704790F83930D4
:1028DC00DBB2122B01D0322B2AD18368B3F5805F87
:1028EC000FD1036A02681B88C3F3080353600369A2
:1028FC001BB9036A0233036209E0036A0133036202
:10290C0005E00268036A591C01621B785360C38C92
:10291C00013B9BB2C3846BB90268D36823F080037C
:10292C00D3600268D36843F04003D3600020704743
:10293C0002207047002070472DE9F84304460168D7
:10294C000B6923F44052C36813430B61816803691C
:10295C00194343691943C36919430068C26822F4D7
:10296C00164323F00C030B43C36021684B6923F41B
:10297C004072A36913434B61E369B3F5004F40F018
:10298C00B2802768AF4B9F4255D1FEF7DBFA00EBC4
:10299C00800000EB800065686D00B0FBF5F5AA4E79
:1029AC00A6FB05356D092D01FEF7CCFA00EB800076
:1029BC0000EB800063685B00B0FBF3F9FEF7C2FA32
:1029CC0000EB800000EB800063685B00B0FBF3F36E
:1029DC00A6FB03235B094FF0640808FB1393DB0091
:1029EC003233A6FB03235B095B0003F4F8731D442D
:1029FC00FEF7A8FA00EB800000EB800063685B0038
:102A0C00B0FBF3F9FEF79EFA00EB800000EB8000C0
:102A1C0063685B00B0FBF3F3A6FB03235B0908FBC5
:102A2C001393DB003233A6FB0336C6F34216354450
:102A3C00BD60BDE8F883FEF76DFA00EB800000EB9B
:102A4C00800065686D00B0FBF5F57F4EA6FB053583
:102A5C006D092D01FEF75EFA00EB800000EB8000A3
:102A6C0063685B00B0FBF3F9FEF754FA00EB8000EF
:102A7C0000EB800063685B00B0FBF3F3A6FB032361
:102A8C005B094FF0640808FB1393DB003233A6FBA1
:102A9C0003235B095B0003F4F8731D44FEF73AFA59
:102AAC0000EB800000EB800063685B00B0FBF3F987
:102ABC00FEF730FA00EB800000EB800063685B00EF
:102ACC00B0FBF3F3A6FB03235B0908FB13984FEA57
:102ADC00C80808F13208A6FB0836C6F3421635447E
:102AEC00BD60BDE8F8832668564B9E4254D1FEF774
:102AFC0029FA00EB800000EB80006568AD00B0FBAC
:102B0C00F5F5514FA7FB05356D092D01FEF71AFAA6
:102B1C0000EB800000EB800063689B00B0FBF3F8D7
:102B2C00FEF710FA00EB800000EB800063689B005E
:102B3C00B0FBF3F3A7FB03235B094FF0640909FB1C
:102B4C0013831B013233A7FB03235B0903F0F00350
:102B5C001D44FEF7F7F900EB800000EB8000636882
:102B6C009B00B0FBF3F8FEF7EDF900EB800000EBF7
:102B7C00800063689B00B0FBF3F3A7FB03235B09A6
:102B8C0009FB13831B013233A7FB0323C3F343134A
:102B9C001D44B560BDE8F883FEF7BCF900EB80007E
:102BAC0000EB80006568AD00B0FBF5F5264FA7FB88
:102BBC0005356D092D01FEF7ADF900EB800000EB3A
:102BCC00800063689B00B0FBF3F8FEF7A3F900EB01
:102BDC00800000EB800063689B00B0FBF3F3A7FB65
:102BEC0003235B094FF0640909FB13831B01323388
:102BFC00A7FB03235B0903F0F0031D44FEF78AF9DE
:102C0C0000EB800000EB800063689B00B0FBF3F8E6
:102C1C00FEF780F900EB800000EB800063689B00FE
:102C2C00B0FBF3F3A7FB03235B0909FB13831B0125
:102C3C003233A7FB0323C3F343131D44B560BDE834
:102C4C00F88300BF003801401F85EB5158B310B515
:102C5C00044690F8393013F0FF0F04D1002380F8AC
:102C6C003830FFF761FA022384F839302268D368D0
:102C7C0023F40053D3602046FFF75EFE22681369ED
:102C8C0023F4904313612268536923F02A035361A0
:102C9C002268D36843F40053D3600020E06301231F
:102CAC0084F8393010BD0120704700BF90F83930DE
:102CBC00DBB2012B01D0222B23D121B32AB390F804
:102CCC003830012B23D0012380F838300162828404
:102CDC00C2840023C36390F83930DBB2222B03D1BA
:102CEC00322380F8393002E0122380F83930002387
:102CFC0080F838300168CA6842F08002CA60184611
:102D0C007047022070470120704701207047022055
:102D1C00704700BF90F83930DBB2012B01D0122B79
:102D2C002FD100292FD0002A2FD090F83830012B2A
:102D3C002DD0012380F8383081628285C285002332
:102D4C00C36390F83930DBB2122B03D1322380F8F5
:102D5C00393002E0222380F83930002380F83830F3
:102D6C000168CA6842F48072CA6001684A6942F01C
:102D7C0001024A610168CA6842F02002CA60184622
:102D8C0070470220704701207047012070470220D5
:102D9C00704700BF704700BF08B50268D36823F0C6
:102DAC004003D36090F83930DBB2322B03D12223AD
:102DBC0080F8393002E0012380F83930FFF7EAFF60
:102DCC00002008BD08B590F83930DBB2222B01D0B9
:102DDC00322B4CD18368B3F5805F13D1836A0269BF
:102DEC0042B902685268C2F308021A80836A02333D
:102DFC00836218E002685268D2B21A80836A013387
:102E0C00836210E0036933B9836A5A1C82620268D8
:102E1C0052681A7007E0826A531C836203685B680D
:102E2C0003F07F031370C38D013B9BB2C38503BBBF
:102E3C000268D36823F02003D36090F83930DBB2FA
:102E4C00322B03D1122380F839300CE00268D3689E
:102E5C0023F48073D3600268536923F00103536138
:102E6C00012380F83930FEF717FD002008BD022041
:102E7C0008BD002008BD00BF704700BF10B582B070
:102E8C00044603681968DA6811F0010F06D002F4E1
:102E9C0080721AB1C26B42F00102C26319685A699E
:102EAC0002F0010211F0020F04D01AB1E16B41F0F3
:102EBC000401E163196811F0040F04D01AB1E16B3D
:102ECC0041F00201E163196811F0080F04D01AB146
:102EDC00E26B42F00802E2631A68DB6803F020033D
:102EEC0012F0200F03D013B12046FFF76BFF2368BD
:102EFC001A68DB6803F0800312F0800F03D013B163
:102F0C002046FFF7E3FC23681A68DB6803F04003F4
:102F1C0012F0400F03D013B12046FFF73DFFE36BD7
:102F2C005BB123681A6801925B680193019B0123D2
:102F3C0084F839302046FFF79FFF02B010BD00BF68
:102F4C00002838D010B5044690F8513013F0FF0F1C
:102F5C0004D1002380F85030FFF7EAFA022384F8FA
:102F6C0051302268136823F04003136021686268B3
:102F7C00A3681A43E3681A4323691A4363691A4323
:102F8C00A36903F400731343E2691343226A1343E6
:102F9C00A26A1A430A602168638B03F00402636A15
:102FAC0013434B602368E26A1A61002060650123B9
:102FBC0084F8513010BD0120704700BF002103E0A0
:102FCC000B4B5B58435004310A480B4B42189A4246
:102FDC00F6D30A4A02E0002342F8043B084B9A421B
:102FEC00F9D3FDF7C7FFFDF7F5F8FFF725FB7047A1
:102FFC00A030000800000020040000200400002085
:10300C0098020020FEE70000F8B500BFF8BC08BC31
:10301C009E467047F8B500BFF8BC08BC9E4670478A
:10302C005372632F6932632E6300000000000000AE
:10303C00000000000102030406070809000000005C
:10304C0001020304030406080C10182030000000D1
:10305C005372632F6164632E630000005372632FFD
:10306C007274632E630000005372632F7573617268
:10307C00742E63005372632F7370692E630000000B
:0C308C005372632F6D61696E2E630000AB
:04309800A901000882
:04309C0081010008A6
:0430A00068FF1F00A6
:0400000508002FC9F7
:00000001FF
